:020000040000fa
:10000000f03f00209d270000472d0000b72d000085
:1000100000000000000000000000000000000000e0
:100020000000000000000000000000003f2200006f
:1000300000000000000000003f2200003f220000fe
:100040003f2200003f2200003f220000212a000042
:100050003f2200003f2200003f2200003f2200001c
:100060003f220000cd2500003f2200002126000095
:100070003f2200003f2200003f2200003f220000fc
:100080003f2200003f2200003f2200003f220000ec
:100090003f2200003f2200003f2200003f220000dc
:1000a0003f2200003f220000a12d00003f2200005f
:0800b000000000003f220000e7
:020000040000fa
:1000b800f8b5c046f8bc08bc9e467047ed2600005f
:1000c800f8b5c046f8bc08bc9e467047c526000077
:020000040000fa
:1000d800024a53781b06fcd47047c046004c0042c5
:1000e800f0b506241e4b44431a68002093681c1977
:1000f80063888b422cd02cd2c91a126889b29378a3
:10010800402b00d149080120842921d80020052945
:100118001ed9cf250f261527a3881c009804800f09
:1001280068431d1235407d431b11334040195b0065
:10013800c018344080b2052c0dd8d378094a9b06e4
:100148009b0f5b009b5a594389b2884280414042c9
:10015800f0bd591ad1e70130053c80b2e4b2eae7b4
:1001680004000020122a00000d4a70b5106801250d
:1001780002680c49148806220b885a43a3420ad203
:100188008668b65c06322e4202d101339bb2f5e78f
:1001980000200b8070bd002301200b80fae7c046c9
:1001a80004000020140e0020f0b587b00700fff708
:1001b8008fff0222654c664d2378fe00934323701f
:1001c8002b685b689b199a78624b510706d41969aa
:1001d8006148014019615a690240b5e0110700d52c
:1001e800a0e080201a695c4940010a4002431a6174
:1001f8005a69114008435861fff76aff2b685b682a
:100208009b195b882382fff763ff2b685b689b5b06
:100218006382fff75dff06232a687b439768ff1810
:10022800bb8823833b789b0701d505233b703f7828
:10023800fff74effff067f0f3f23002f07d12b68e4
:100248005b689b195a79454b12099b181b7aa37650
:10025800fff73eff2b6807275b689b191b791b0973
:10026800e376fff735ff03212b685b689b191a7942
:1002780023790a408b4313432371fff729ff2b6827
:100288005b689e19b2790226637b3a40bb431343ed
:100298006373fff71dff237833432370304b5b688c
:1002a8000393002b35d00125fff712ff237b1b0793
:1002b8001b0f0493fff70cff23799b079b0f0593f4
:1002c800fff706ff2378b3432370fff701ff637935
:1002d8001d433543fff7fcfeedb2224b65711a68ea
:1002e800082311780b431370fff7f2fe657bfff7c5
:1002f800effe637bedb2bb436373059a1a4b00951f
:1003080004990020039da847fff7e2fe23781e43c7
:100318002670fff7ddfe8023627b5b421343637325
:1003280007b0f0bdd10605d480201a690a498001ba
:100338000a405be71969920600d549e7c022920195
:100348001143196159690a435a6155e7004c004243
:100358000400002000440042ffcfffff122a0000e3
:10036800140e0020000000200d4c0042f8b5154b7b
:100378001b681b689a78402a1fd1134a15780426ef
:100388001a790f23354313400f2a00d9102360240c
:100398000e4ff6b21c43fff79bfe3e700026fff798
:1003a80097fee4b23e71fff793fe3c73fff790feb1
:1003b8003000074bedb2dd77f8bd0220802afbd173
:1003c800044adbe704000020f0290000004c00424a
:1003d800014c0042f12900000b23002802d0024bf7
:1003e8001860002318007047000000200b23002825
:1003f80002d0024b5860002318007047140e0020ea
:10040800034b03205a68002a01d000205860704727
:10041800140e00200322f0b5af4b89b01b7a059269
:10042800002b14d0ad4b1b6803931b6804931b88e7
:100438000693ab4b1b6807930023029305936b4607
:100448001a89069b9a4205d30222a34b1a72059871
:1004580009b0f0bd0626029b07995b00cc5a039ba6
:1004680003999b6849680193029b5e43019b9e190f
:1004780007233578ad081d40029bdb00cb1801939c
:100488009b79042d00d926e1280002f045fc0500df
:1004980013000701d9000f000f21019a52790a4071
:1004a800934201d99d1aedb22c417480029b01330d
:1004b8000293c4e71c41a3b28a4c7380b788a34255
:1004c80017d9894a9b182a009bb204998978402930
:1004d80013d15b08151e12d1844a002597420ed10c
:1004e80081233370733b059333785a0617d501235c
:1004f80025e0e31a9bb20022e7e7002aecd1042b9f
:10050800f2d903210f243a1338118c460a403912c4
:10051800214020402740002d5ad00a245ee05bb2db
:10052800002b0ddb0322049bdb781340022b0bd13d
:10053800019b0c321b799343019a13710923337081
:10054800bf04bf0cb780b1e7012bd0d10f22019bac
:100558001b791a4030231343019a13710d23eee7d8
:100568000132cf3bd2b29bb2cf2b01d9032af7d1ac
:10057800152b0dd90f2906d12100032a0ad00132e3
:10058800d2b2290006e00131153bc9b29bb2efe7b0
:100598000f29f1d0022b0dd90f2806d10f290fd121
:1005a800032a00d1a4e020000fe00130023bc0b2d2
:1005b8009bb2efe70f28f1d0032a33d1624604e05b
:1005c8000131c9b22800032af8d0022bccd829e07f
:1005d8000525c9e7013acf3bd2b29bb2cf2b01d94f
:1005e800002af7d1152b0cd9002905d1111e0ad0e4
:1005f800013ad2b2210006e00139153bc9b29bb2db
:10060800f0e70029f2d0022b0ad9002803d10029eb
:1006180010d1080006e00138023bc0b29bb2f2e7f5
:100628000028f4d0120392b2090211430f430001cb
:10063800074387e70139c9b22000022bced8f1e77a
:100648001c41019ba4b21f793d09032d24d0210030
:100658001000fff745fd002819d10135012333703b
:100668000f232d011f40019b3d431d71337874807a
:10067800012b00d01ae71b4b9c422ad91a4be418cd
:10068800a4b2052c00d811e7452333700ee7002dde
:10069800e4d0013dedb2e3e70225e1e71c410f2577
:1006a800019ba4b21f793d4011d021001000fff733
:1006b80017fd002806d1013dedb2012333700f2349
:1006c8009f43d0e7032df8d00135edb2f7e70125b8
:1006d800f5e71c1bd4e7fee7140e002004000020f9
:1006e80008000020ff01000001feffffff3f00009f
:1006f8000f008ee7f7b580213d4a3e4c1369c900cb
:1007080023400b43136153692340194351610b2460
:10071800002840d00368198800231f0001939ab26b
:1007280091423ad80224002f35d0019b00201b04a7
:100738003b439c46012110250d346346c3400b42c0
:1007480011d02d4bc35c1f2b35d82c4e5a0892194b
:1007580016780b422cd026402e431670284a9b1838
:100768001a780a431a7001302028e6d10024254d52
:10077800fff7aefc244b2c701e7aa6422bd1fff754
:10078800a7fc6b469b883400eb82fff7a1fc012392
:100798001d4aaf8213722000febd4468da00a21819
:1007a8001488019d01332543019552881743b6e704
:1007b800a6430e43d1e7203b144edbb25a089219e8
:1007c80016780b4204d026402e431670104ac6e70e
:1007d800a6430e43f9e7fff77bfceb8a019a1a431d
:1007e800ea82fff775fcab8a3b43ab82d3e7c0468e
:1007f80000440042fff8fffff229000030440041a6
:1008080040440041004c0042140e0020b044004116
:10081800c04400410b23002802d0024b186000237b
:100828001800704708000020f7b5070001910b2455
:1008380000290ed000280cd02c4d083c2b7a002b18
:1008480007d0023c042b04d0294e737b5bb2002beb
:1008580003da2000febd2c72fbe7022403685b79f3
:10086800013ba342f5d8fff733fc3378a343337039
:10087800204b1f60019beb60fff778fd80221e4b29
:10088800d204da67bff34f8fbff36f8f0723b372ba
:10089800fff71efc0122737a802113437372174bf2
:1008a800c9041a70c023164a5b00d150c622ff2023
:1008b800134b920099583b6800045b799b050340f1
:1008c800104801400b430e498b5080220023d2046c
:1008d8000a602b80fff748fc061ebcd10423288839
:1008e8002b723400fff760fcb3e7c046140e0020fb
:1008f800004c00420400002004e100e053140020f2
:1009080000e100e0ffff00ff0b2300280ad0036886
:100918001a8802238a4205d3043359438268053b67
:100928008b54002318007047030010b50b20002bd0
:1009380016d01a68093814888c4211d392789b68ab
:10094800402a0ed18d203a3a4a4380009a18908066
:100958000020062251435b181978043a0a431a709a
:1009680010bd803ad2b2012af3d806224a43014880
:100978009a18ece767050000f8b506000b25002972
:1009880014d0002812d00268002a0fd01768808877
:100998003b88093d984209d23f48013d037a042b20
:1009a80004d03e4c637b5bb2002b01da2800f8bd13
:1009b80002257b79013bab42f8d8394b01611a60bb
:1009c800384b0f271d70fff7d1fc06233168b2881a
:1009d800886853434968d2008a185179c3185b88dc
:1009e800b0790f4091791a18c91bc9b292b28a40de
:1009f8001b1a9bb28b4092b2a28407222a499bb24f
:100a0800e384cb7f294f93431a00042313438022a6
:100a1800cb77274bd204da67bff34f8fbff36f8fc3
:100a2800fff756fb0122a37a1343a372fff750fb8b
:100a3800a37a2b43a372fff74bfb0122237a1343bc
:100a48002372fff745fb637a80222b436372c0232e
:100a5800d2045b00fa50ff20c622336892001b685c
:100a680000045b79b9589b050340124801400b43c9
:100a7800bb508023db043b60fff72afb012263792c
:100a880013436371074b1d70fff722fbb088fff714
:100a98008bfb00258ae7c046140e0020004c00425c
:100aa8000400002053140020024c004200e100e042
:100ab80004e100e0ffff00ff70b5094b03201d783b
:100ac800022d0bd10122074c1a70fff701fb237886
:100ad800ab432370fff7fcfa0020607170bdc0467d
:100ae80053140020004c00420222074b997ac9b2e5
:100af800114202d0987a02439a720122114202d01e
:100b0800997a0a439a727047004c0042f8b5fff789
:100b1800dffa02221f4c237893432370fff7e4ff88
:100b2800a08ba18b1c4c1d4a238812685b00d152f4
:100b38001b4b80b21b78012b02d0022b10d0f8bdc2
:100b4800238801332380fff70ffb002805d1208875
:100b5800fff72afb04232372f1e7e3689847eee7df
:100b68000f22104b25881e68e90073680027591862
:100b78004b791a408b799a4201d29b1adfb206212f
:100b8800f8406943b3685b185880022323722369cd
:100b9800e4e7c046004c0042140e00200800002084
:100ba800531400200400002070b5fff791fa0222c8
:100bb8000025064c237893432370fff789fae582d2
:100bc800fff786fa024ba5821d7270bd004c0042e9
:0c0bd800140e00202420704713207047ea
:020000040000fa
:100be400f80d00201c000000000000003c0e002056
:100bf4000c00000000000000980d002060000000c0
:100c0400000000005c0e002008000000000000004e
:100c14006a0e00200200000000000000390e0020cf
:100c24000100000000000000510e0020010000003f
:100c3400000000007b0e0020010000000000000006
:100c44003a0e002002000000000000007e0e00208a
:100c540002000000000000005c0d00203c000000c9
:100c640000000000480e0020090000000000000001
:100c7400280e00201100000000000000800e00205b
:100c84000200000000000000520e002002000000dc
:100c9400000000006c0e00200400000000000000b2
:100ca400640e00200600000000000000820e0020f8
:100cb4000300000000000000481400200b000000a6
:100cc400010000000233018017000005000001004c
:100cd400780e00200300000000000000850e0020b4
:100ce40002000000000000000c06002000060000c6
:100cf400000000000c0000200006000000000000be
:100d0400540e00200800000000000000870e0020a0
:100d140001000000000000000c0c00200001000095
:100d240000000000880e0020010000000000000008
:100d34007014002003000000010000000001020004
:100d4400681400200600000001000000800040300c
:100d5400000300008c0e00200004000001000000cd
:100d64000100008000000400020000800000040074
:100d7400040000800000040008000080000004005b
:100d84000010008000000400002000800000040027
:100d94000040008000000400008000800000040087
:100da4001000008000000400200000800000040007
:100db4004000008000000400800000800000040067
:100dc4000001008000000400000200800000040014
:100dd40000040080000004000008008000000400fb
:100de4000100004000000400020000400000040074
:100df400040000400000040008000040000004005b
:100e04000010004000000400002000400000040026
:100e14000040004000000400008000400000040086
:100e24001000004000000400200000400000040006
:100e34004000004000000400800000400000040066
:100e44000001004000000400000200400000040013
:100e540000040040000004000008004000000400fa
:100e64000100002000000400020000200000040033
:100e7400040000200000040008000020000004001a
:100e840000100020000004000020002000000400e6
:100e94000040002000000400008000200000040046
:100ea40010000020000004002000002000000400c6
:100eb4004000002000000400800000200000040026
:100ec40000010020000004000002002000000400d3
:100ed40000040020000004000008002000000400ba
:100ee40001000010000004000200001000000400d3
:100ef40004000010000004000800001000000400ba
:100f04000010001000000400002000100000040085
:100f140000400010000004000080001000000400e5
:100f24001000001000000400200000100000040065
:100f340040000010000004008000001000000400c5
:100f44000001001000000400000200100000040072
:100f54000004001000000400000800100000040059
:100f64000100010000000400020001000000040070
:100f74000400010000000400080001000000040057
:100f84000010010000000400002001000000040023
:100f94000040010000000400008001000000040083
:100fa4001000010000000400200001000000040003
:100fb4004000010000000400800001000000040063
:100fc4000001010000000400000201000000040010
:100fd40000040100000004000008010000000400f7
:100fe40001000200000004000200020000000400ee
:100ff40004000200000004000800020000000400d5
:1010040000100200000004000020020000000400a0
:101014000040020000000400008002000000040000
:101024001000020000000400200002000000040080
:1010340040000200000004008000020000000400e0
:10104400000102000000040000020200000004008d
:101054000004020000000400000802000000040074
:101064000100000400000400020000040000040069
:101074000400000400000400080000040000040050
:10108400001000040000040000200004000004001c
:10109400004000040000040000800004000004007c
:1010a40010000004000004002000000400000400fc
:1010b400400000040000040080000004000004005c
:1010c4000001000400000400000200040000040009
:1010d40000040004000004000008000400000400f0
:1010e40001000008000004000200000800000400e1
:1010f40004000008000004000800000800000400c8
:101104000010000800000400002000080000040093
:1011140000400008000004000080000800000400f3
:101124001000000800000400200000080000040073
:1011340040000008000004008000000800000400d3
:101144000001000800000400000200080000040080
:101154000004000800000400000800080000040067
:101164003c1400200c000000010000006814002062
:101174008c0e00200c0900208c120020800100003d
:101184000100000014010114010114010114010102
:1011940014010114010114010114010114010114c9
:1011a40001011401011401011401011401011401cc
:1011b40001140101140101140101140101140101bc
:1011c4001401011401011401011401011401011499
:1011d400010114010114010114010114010114019c
:1011e400011401011401011401011401011401018c
:1011f4001401011401011401011401011401011469
:10120400010114010114010114010114010114016b
:10121400011401011401011401011401011401015b
:101224001401011401011401011401011401011438
:10123400010114010114010114010114010114013b
:10124400011401011401011401011401011401012b
:101254001401011401011401011401011401011408
:10126400010114010114010114010114010114010b
:1012740001140101140101140101140101140101fb
:1012840014010114010114010114010114010114d8
:1012940001011401011401011401011401011401db
:1012a40001140101140101140101140101140101cb
:1012b40014010114010114010114010114010114a8
:1012c40001011401011401011401011401011401ab
:1012d400011401011401011401011401011401019b
:1012e4001401011401011401011401011401011478
:1012f400010114010114010114010114010114017b
:1013040001140101541400200a000000010000002f
:101314008000020503001414140100000c140020c2
:101324002000000001000000540e0020541400208e
:101334000c0000208c120020800003006c1400209c
:101344007014002001190600601400200800000039
:10135400010000002c1400201c1400202c14002078
:101364001000000001000000000000000c06002036
:101374000c090020780e00207c0e002002000000e2
:1013840000000000531400200100000001000000d0
:1013940001000000140e00201400000000000000f2
:1013a400000000200c00000000000000700e00206f
:1013b40004000000000000000c0d0020500000009c
:1013c40000000000740e0020040000000000000073
:1013d40000000000000000006666666666666666d9
:020000040000fa
:1013e400f0b587b00090009b0b20002b00d1e2e108
:1013f400002603275b68049602931b8801960593d5
:101404000396049b059a93421ed1009b1a68137895
:1014140059b200290bda0820002101268446049cd5
:1014240088b2844200d9ffe07f210b401370039bf4
:10143400002b00d009e1019801231178002800d184
:101444005be10b4313705ae1009bb5009b685d1987
:101454001e236a681178194001d001232b702b7860
:10146400042b73d00ad8022b2ed043d8012b23d0bf
:10147400049b033601339bb20493c2e7852b00d14e
:1014840082e0862b00d1a9e0072bf1d1298953886a
:1014940099425fd9c91a009b0298db6840799b5d29
:1014a40089b20341dbb28b4254d86b78002b69d1eb
:1014b40001232b701770dbe703930029d8d1022393
:1014c4002b7008236b70d3e76978002910d05288f9
:1014d400042904d92a810139697001237ce02b890c
:1014e4009342f8d002d9013b2b81f4e70133fbe7a7
:1014f4002f70bde7298953889942b9d0009ad268e0
:1015040010d9cb1a0299925d49799bb20a41d2b2a1
:101514009a42add8029b1b79002ba9d007222a70ce
:101524006b70dae792195b1a11789bb299429fd8d3
:101534009378002b05d00499009800f041fe002810
:1015440096d104232b70029b9b78e9e72989538861
:10155400994202d92f700023b4e7009a5b1ad2682b
:101564009bb2921911789942f4d29378002b06d049
:101574000499009800f024fe002800d078e76b78e6
:10158400002b47d0013bcbe7029b00991b7a0968eb
:101594000b7128895388984207d986232b70029ba4
:1015a4009b786b700123019316e0009a1b1ad26892
:1015b4009bb291190a784978140001310c41012138
:1015c400121bd2b201919a4200d251e786232b70aa
:1015d400029b9b786b700b00039349e7288953881f
:1015e400984209d96b78002b01d12f7001e0013b9f
:1015f4006b70012301933be7009a1b1ad2689bb2dc
:1016040091190a784978140001310c41121bd2b2a5
:101614009a4204d285232b70029bdb78e8e76b782f
:10162400002be2d0013bbce70c2500984d438068b9
:1016340045196f683878304205d164462d78a54342
:1016440001d0304338700131e9e6029b597a002910
:1016540000d1f0e6802310785b4203431370012924
:1016640000d0e8e600218bb20393049b88b2834246
:1016740000d8e0e60c20009b48439b680825181816
:10168400029303781c00ac4315d0852b01d0032ba7
:101694002ed10325009bdf682b004b43fb189b785e
:1016a4009c46002b07d000231e000595049c9c42f9
:1016b40008d8002e1cd1012540680378ab43037081
:1016c4000131d0e7039c9c420fd00c255d43029c62
:1016d4002d5d042d01d0862d07d1059d5d437d1917
:1016e400ad78654501d10126049b01339bb2dde74a
:1016f4000123406805782b43e1e799431170528830
:10170400584b11001b88c8318b4251d99b1a9bb28c
:101714009c466346c82b4dd96346c83b9bb29c4646
:10172400009b1b685a88c8325a801a79002a00d054
:1017340070e05a79002a01d0013a5a719a79002a44
:1017440001d0013a9a71009a50688679002e07d028
:101754005a79002a04d1078891b28f4234d85e7135
:10176400c579002d07d09a79002a04d1068891b250
:10177400b1423cd39d71009b5b68da78002ac8d0e3
:101784001f880c23002103207b4302938bb2bb42ae
:10179400bfd20c22009b4a439b689a181578852d6a
:1017a40004d15578002d38d0013d55700131ede755
:1017b400934202d3002007b0f0bd2b495918891a6f
:1017c400c829f7d9013ba1e70c21009c5143a46827
:1017d40061180d78032d01d0082d06d14c680d89b0
:1017e4006488ac4201d901350d810132b4e70c2182
:1017f40000985143806841180878032801d00828cc
:1018040006d14c6808896788874201d2013808816b
:101814000132ace7013a1a71ade7012405001470f6
:1018240052684d431070009ad2685519ad78002d56
:10183400bcd0029c02321c1901920394039a934275
:10184400b4d0019a1678ae4206d101225e6834788b
:10185400144201d01a703070019a0c330332019291
:0c186400ece7c0467c0e0020ffff0000f7
:020000040000fa
:10187000f0b502008db00b20002a6ad055681168bf
:10188000ab7801934b7802932b7b002b3ed0002446
:1018900020002b889c46019b5b000393029b5e000b
:1018a0006746a3b29f4256d86b7b984200d87be034
:1018b000cb6802995b181978013119701168536867
:1018c0004878c968085c997b88421fd169469d6841
:1018d000029b0989e81803780391002b53d0013b40
:1018e000dbb26e466f46b68800213e823e8a0124f6
:1018f000b44667468eb2b74247d8002cedd003708d
:101900000023180051688978994247d8029b69469c
:101910005b000a93019b56685b08013306936b4694
:101920009b888b818b890b9300239c460393338880
:1019300003998b4244d8029b01990133dbb28b425d
:101940008941b0680b40c05c716808700020126863
:1019500053700db0f0bd062363438f68fb185f889a
:101960004b689b5b9f420ad9fb1a9bb21f1c8342a8
:1019700000d2071cb8b2039b0134f61890e79f42cf
:10198000f9d2db1bf1e70f23abe7039fb74203d08c
:101990006e5c9e4200d100240131aae71168c9683b
:1019a000c85401339bb2ade75b088342aed9cb6824
:1019b00002995b1819780029a8d001391970a5e798
:1019c0000623039910684b438168cb1804931b7856
:1019d000db065b0f40d16146406849004118059124
:1019e0000499059849880a9c0993015301999942e1
:1019f0002ed9002005995d004919089104000121a4
:101a00000de09f420ad0059d6700ed5b0795089d9c
:101a10002f88079dbd4215d10131c9b20134019d06
:101a2000e7b2bd42edd8069c8c4204d9844206d967
:101a30004118a14203db089b1b880993019b0133da
:101a4000dbb2d3e7079dbd42e8d20130c0b2e5e783
:101a50006946049b898c5980039b0b9901339bb287
:0e1a6000039363468c4663449bb29c465fe74b
:020000040000fa
:021a6e007047bf
:020000040000fa
:101a700010b5594b1b79022b21d0032b59d0002bc9
:101a80000dd0554b00221a71544b1b78002b05d1f9
:101a9000534b1b881bb2002b00da6fe010bd01f026
:101aa0007bf80528f0d900f0fdff5528ecd14a4c11
:101ab0000421200001f0b0f802232371e4e7464b33
:101ac0001b78022b1ad0012bded101f065f801281a
:101ad000dad900f0e7ff040000f0e4ff002cd3d1d6
:101ae000aa28d1d13e4803883b494c780122a24024
:101af00013439bb2038003230b71c5e7364b598810
:101b00003b2903d9587800f025f9bde701f044f8e6
:101b1000314b5b8880b28342b6d2314803882e496c
:101b20004c780122a24013439bb2038003230b7124
:101b3000aae72a4b1b78002ba6d1294b1b881b0533
:101b4000a2d0254b1b78012b10d0022b9cd1224c0c
:101b50006188607800f0fef80023237120490b882b
:101b600060780122824093430b808de71a4c6078a5
:101b7000002100f07ffd0023237185e7194c2378b5
:101b8000194ad15c194a11701178c9b25b00184a20
:101b90009a5a032000f0c2fe23789b00154a9b58f6
:101ba000002098472378144ad15c144a11805900c8
:101bb000134a8a5a9b0013495958012000f0cafd64
:101bc00023780133dbb2022b02d0064a137065e79b
:101bd000044b00221a7061e7640e0020820e002080
:101be0006a0e00207b0e0020d42d0000510e002034
:101bf000d82d0000c02d0000dc2d00003a0e002082
:081c0000d02d0000b82d0000fa
:020000040000fa
:101c080010b5464b1b78012b03d0454b00221a70a8
:101c180010bd444b1b78444a12889a4227d8434b3c
:101c28001b78022b30d0414b1b78012bf0d1404b55
:101c38001a78404b1b889a4259d23f4b1878c0b249
:101c480001f0b0f83a4c2378dbb280003b4a825866
:101c580018009047334b01221a7023780133dbb206
:101c68002370374b1b68187801f02ef8d0e72d4cfd
:101c78002378dbb2324a1268d05c01f025f8237869
:101c88000133dbb22370c3e7294b1a78294b1b8831
:101c98009a4207d3264a1278934217d0204b002243
:101ca8001a70b5e7224c2178c9b2264b587800f053
:101cb800ddfc1c4b01221a7023780133dbb2237040
:101cc8001f4b1b68187800f0ffffa1e7184a13782c
:101cd8000133dbb213701c490b881a4a5078012271
:101ce800824093430b80aa2000f0eeff90e7104a51
:101cf8001278934203d00a4b00221a7088e70c4ae4
:101d080013780133dbb213700f4a13885b045b0c42
:101d18001380aa2000f0d8ff7ae7c04652140020aa
:101d2800820e0020840e0020520e0020390e002062
:101d3800830e00203a0e0020510e0020c02d000016
:0c1d48006c0e0020640e00206a0e0020cb
:020000040000fa
:101d5400f0b5c64600b5040000f01cff85b2012ca6
:101d640037d0002c0dd0022c46d0200000f000ff0c
:101d74002f4b598880002f4bc05800f04bff00f0c8
:101d84008ffe04bc9046f0bd387800f0b5fe3b7879
:101d94000133dbb23b70073dadb2802b0ad0072d77
:101da400efd9254ce61d00f07bfe20700134a642dd
:101db400f9d1e9e70023214a13701d4a1371204920
:101dc4000b8850780122824093430b8000f068fe18
:101dd400d7e7072dd5d9194fe3e70023174a137026
:101de400134a137116490b88507801228240934399
:101df4000b8000f055fec4e7032dc2d90f4f114be1
:101e040098463c7866003619464400f049fe307026
:101e140000f046fe707000f043feb0700134e4b28e
:101e24003c70033dadb2802cd7d0032de9d8a8e790
:101e3400640e0020e42c00005c0e0020630e0020e1
:081e44006a0e00208c12002040
:020000040000fa
:101e4c002a4b1a6a2a491140e12252000a431a62ab
:101e5c0000229a619a8c80218a439a841a0010235a
:101e6c00d1680b42fcd0234b1b689b0e3f2b3ad006
:101e7c009b028022920013431c4a93621023d16868
:101e8c000b42fcd0194b02229a841a001023d16801
:101e9c000b42fcd0184b194a5a60194a9a601a0026
:101eac0053785bb2002bfbdb134b164a5a601a00bb
:101ebc0053785bb2002bfbdb0f4b134a5a601a00b2
:101ecc0053785bb2002bfbdb0b4b104a5a80104a49
:101edc005a80104a5a80104a5a80104a5a80104b25
:101eec00104a1a627047203bc2e7c0460008004007
:101efc000000ffcf24608000000c00400103210093
:101f0c00011000000206210000070100044100003e
:101f1c00074200001440000016400000224200005e
:081f2c0000040040160009004a
:020000040000fa
:101f340070b5374b802252041a601a610122422183
:101f44005a5401315a5401315a5401315a5403310b
:101f54005a5401315a5401315a5401315a540331fb
:101f64005a5401315a5401315a5401315a540131ed
:101f74005a5401315a5401315a5401315a540131dd
:101f84005a5401315a5402200131585447393124ea
:101f94001955013433251d55023419550134195589
:101fa4000234113d1d5501341955013419550134bc
:101fb40019550134195500241a355c554435c02689
:101fc400b6025e5144355a5501355a5501355a55b4
:101fd40001355a5501355a5501355a5503355a5567
:101fe40001355a5501355a5501355a55cf32985451
:101ff400013298541f3a9954013299540132995438
:10200400023299540132995401329c5470bdc04635
:042014000044004143
:020000040000fa
:1020180010b5204b1b78012b06d01f4b1b78012bca
:102028000cd0fff721fd10bd1c491d48fef7fcfb35
:102038000028f2d1174b00221a70eee7164b002247
:102048001a70fef7e7f9002811d11648fff70cfcc3
:10205800002808d11448fff7c1f900280ad0134b0b
:1020680003221a7006e0114b02221a70f2e70f4b96
:1020780001221a7000f01efe0b4b1b681b787f2b89
:1020880003d80b4b01221a70cbe7024b01221a70be
:10209800c7e7c046870e0020880e0020952d000057
:1020a8003c140020601400200c140020860e002030
:0420b800850e002071
:020000040000fa
:1020bc00f8b51e4b1b7d002b37d01c4a936851681a
:1020cc001b4a127ed2071dd599421bd918490726e7
:1020dc00164a944617001500012409e03a68d25cb0
:1020ec000a85013368680a7e22420bd0984209d9ce
:1020fc004a683240012af1d1624612685800825a6d
:10210c000a85eee7094a936052689a420dd8074b4c
:10211c0000221a755a60064a01211175db68002be2
:10212c0003d0024b1869db689847f8bd980d002066
:04213c000008004255
:020000040000fa
:10214000f8b51e4b1b7d002b37d01c4a9368516895
:102150001b4a127ed2071dd599421bd91849072662
:10216000164a944617001500012409e03a68d25c2b
:102170000a85013368680a7e22420bd0984209d949
:102180004a683240012af1d1624612685800825ae8
:102190000a85eee7094a936052689a420dd8074bc8
:1021a00000221a755a60064a01211175db68002b5e
:1021b00003d0024b1869db689847f8bdc80d0020b2
:0421c00000100042c9
:020000040000fa
:1021c400f7b50c25c3684d439c46032382684b43f3
:1021d40055196c6863442d8964889f781b78641b47
:1021e400e41aa3b201930025436860461e88b542f1
:1021f40001d10020febd8d4218d08378bb4215d199
:1022040013787b33dbb2012b15d913899c465368b1
:102214005b889c450ad264461b1b04789bb2a3428c
:1022240004d91b1b019c9bb29c4204d30135adb263
:0a22340003300c32dbe70120dce789
:020000040000fa
:02223e00fee7b9
:020000040000fa
:1022400070b5002830d0194b1a7d0023002a29d1ff
:10225000164b1860596001321a755c68144b1b7e6e
:10226000db0716d5002c17d00023114907260125be
:1022700007e0c25c0a8501330a7e2a420bd09c42e9
:102280000ad04a683240012af3d15a00825a0a859c
:10229000f1e7002400e01c00044b9c60044b012289
:1022a0009a750123180070bd0023fbe7980d0020ec
:0422b00000080042e0
:020000040000fa
:1022b40010b5194a2c23d35c002b18d01300d26913
:1022c4001b6a934213d2144b986a14490a8d92b232
:1022d4001b6a4c6807212140012909d00e498969ec
:1022e400ca5401330c4a1362d2699a4205d010bd14
:1022f400094989695c006252f3e7074b00222c21eb
:102304005a54da61054a583111755b6a002beed0d4
:10231400014b5b6a9847eae7980d002000080042e9
:020000040000fa
:1023240010b5194a2c23d35c002b18d01300d269a2
:102334001b6a934213d2144b986a14490a8d92b2c1
:102344001b6a4c6807212140012909d00e4989697b
:10235400ca5401330c4a1362d2699a4205d010bda3
:10236400094989695c006252f3e7074b00222c217a
:102374005a54da61054a583111755b6a002beed064
:10238400014b5b6a9847eae7c80d00200010004241
:020000040000fa
:1023940010b5bff35f8f62b6154bc02189005a5840
:1023a4001202120ac020000602435a5008221a6080
:1023b40008315a580f4c1440c022120222435a507a
:1023c400802292001a605a581202120a02435a508a
:1023d400802212011a60c62080001a580649114052
:1023e400c02212040a431a508022d2041a6010bd7b
:0c23f40000e100e0ff00ffffffff00ff22
:020000040000fa
:1024000010b5114b80221a80104ac100104b5b1886
:1024100019791171597951719b799371002806d0fe
:102420000c4b0a4a1a600c4b07221a8010bde0229e
:102430000a4b59789200043000f070fa07220349e1
:10244000022000f087f9f1e73a0e00205c0e002030
:102450008c0e00206c0e0020520e0020640e002016
:020000040000fa
:1024600070b500f077fa1248fef748f91148fef708
:10247000d5f900240e4d21002800fef749fa21006d
:102480002800fef755fa0134a4b2802cf3d10a4d8e
:1024900000240a4ee1b22a00300000f09ffb013414
:1024a000a4b20635802cf5d100f03cfb70bdc046cf
:1024b0003c1400200c0c00200c0900200c140020ff
:020000040000fa
:1024c00000230e4a10b513600d4a13600d4a1360c5
:1024d0000d4a13600d4a13600d4a536213610133b4
:1024e000936000f07ffc00f07dfc0a4c0a4b9c429c
:1024f00000d310bd08cc9847f8e7c046740e002002
:10250000180d0020140d00200c0d0020100d0020cf
:0c2510001c0d0020c4000000c8000000ea
:020000040000fa
:10251c00114b124a1a60124a9a81c02292025a60d6
:10252c001a00d369002bfcd10b4a136802210b4310
:10253c001360d369002bfcd10a4b00229a61da613b
:10254c001a622c215a545a621a605a609a601a758f
:10255c00da60da857047c046000800420401124078
:08256c002bf6ffff980d002083
:020000040000fa
:10257400114b124a1a60124a9a81c02292025a607e
:102584001a00d369002bfcd10b4a136802210b43b8
:102594001360d369002bfcd10a4b00229a61da61e3
:1025a4001a622c215a545a621a605a609a601a7537
:1025b400da60da857047c0460010004204013140f9
:0825c4002bf6ffffc80d0020fb
:020000040000fa
:1025cc0010b5134b9b7d002b1ad0114a137edbb236
:1025dc00927d52b2002a14db0d4a137edbb2927d3f
:1025ec00d20703d5db0701d5fff762fd084a137e3e
:1025fc00dbb2927d520703d55b0701d5fff754fe82
:10260c0010bd5bb2002be7da00f028f9e4e7c04616
:04261c000008004270
:020000040000fa
:1026200010b5134b9b7d002b1ad0114a137edbb2e1
:10263000927d52b2002a14db0d4a137edbb2927dea
:10264000d20703d5db0701d5fff77afd084a137ed1
:10265000dbb2927d520703d55b0701d5fff762fe1f
:1026600010bd5bb2002be7da00f01cf9e4e7c046ce
:042670000010004214
:020000040000fa
:1026740070b5012817d00e4b01221a800d4b5e78dd
:1026840000f076fa040042000b4bd55a2a003100c0
:10269400042000f041f9a400084be1582a0002206c
:1026a40000f056f870bd0800fff7a8fefae7c04630
:1026b4003a0e0020640e0020882d0000e42c000057
:020000040000fa
:1026c40010b5064c2378002b07d1054b002b02d004
:1026d400044800e000bf0123237010bdf80d002062
:1026e4000000000000000000044b10b5002b03d0d4
:1026f4000349044800e000bf10bdc04600000000cc
:08270400fc0d002000000000a4
:020000040000fa
:10270c0070b50e4943001a1852008a1855880c4aa5
:10271c0015800c4e1c18a4003419248954802d1bd0
:10272c0095801c18a400a45de40994711b185b002f
:10273c00cb181979d1715b79137270bd0c0900201b
:08274c00480e00200c000020e3
:020000040000fa
:1027540010b50b4b1b78002b00d010bd094b187023
:102764000123074803700848037008480370084ba6
:102774001960084b1a80087800f0a8faede7c04603
:10278400820e0020390e0020830e0020840e0020cb
:082794006c0e0020520e002023
:020000040000fa
:10279c0010b50a4b98470a4b984700f009f9094bba
:1027ac00ff229343084a9360084b9847084b98477d
:1027bc00084b984700f0c4f9fee7c0466f1a0000ba
:1027cc006f1a00000000000000ed00e0c1240000c2
:0827dc006f1a00006f1a0000e3
:020000040000fa
:1027e40070b504000d00002815d00c4a2c23d35cce
:1027f4000020002b00d070bd00f026f9074b9c612f
:10280400dd6100221a622c2101205854da85044b20
:1028140084329a75efe70020ede7c046980d00205a
:042824000008004266
:020000040000fa
:102828000e4b01221a801a00937a5bb2002bfbdb55
:102838000a4bc02252001a801a00937a5bb2002b0e
:10284800fbdb064b01229a611a00937a5bb2002bdc
:10285800fbdb024b0122da719a80704700140040ba
:020000040000fa
:1028680010b50c4b5b8b0722134000d110bd0a4cee
:10287800e38500f0e7f8074b84221a752c23002221
:10288800e254636a002bf1d0034b986a5b6a98475d
:0c289800ece7c04600080042980d00204c
:020000040000fa
:1028a40010b50c4b5b8b0722134000d110bd0a4cb2
:1028b400e38500f0dff8074b84221a752c230022ed
:1028c400e254636a002bf1d0034b986a5b6a984721
:0c28d400ece7c04600100042c80d0020d8
:020000040000fa
:1028e00010b50b4a1378dbb20a4908780a49c85474
:1028f00013780133dbb2137013783c2b04d0012121
:102900000448fff76fff10bd130000221a70f6e7ae
:0c2910007f0e0020800e00205c0d0020d7
:020000040000fa
:10291c00f8b507000e0014000a4d00232b7055204b
:10292c0000f082f9380000f07ff9300000f07cf9fb
:10293c00e0b200f079f9200a00f076f901232b704f
:08294c00f8bdc0465214002042
:020000040000fa
:1029540010b50021094800f003fa094a937a5bb2e2
:10296400002bfbdb00f07ef9002000f091f914202d
:1029740000f098f900f06af910bdc046c92d0000b6
:0429840000140040fb
:020000040000fa
:1029880010b50b4b06225a60fff7d0fafff75afa38
:10299800fff7ecfd00f0dcf9fff7bcfd00f06cf987
:1029a800fff73efffff758fdfff7f0fc10bdc046ec
:0429b800004000419a
:020000040000fa
:1029bc0010b50a480168002903d14368002b00d1e7
:1029cc0010bd04008368064a9bb20c349b009b58d4
:1029dc0042682000984780002018ebe7e40b0000c9
:0429ec000c2d0000ae
:020000040000fa
:1029f00080a0020304050607202122232425262780
:102a0000282908090a0b10111213141516172c2d5a
:102a10002e2f07001300350090003f1c0b0503010b
:020000040000fa
:102a200010b508490b7adbb2074a1371c1230b7248
:102a30001368002b04d01079c0b2916813689847ce
:0c2a400010bdc046001400403c0e0020f9
:020000040000fa
:102a4c00094b5b8b5b070dd0074b80221a76793aca
:102a5c005a831b7e5b0705d5034b04211a8d1a7e06
:0c2a6c000a42fbd17047c046000800423f
:020000040000fa
:102a7800094b5b8b5b070dd0074b80221a76793a9e
:102a88005a831b7e5b0705d5034b04211a8d1a7eda
:0c2a98000a42fbd17047c046001000420b
:020000040000fa
:102aa400084a1378dbb20849c85c13780133dbb2f7
:102ab400137013783c2b00d07047130000221a7057
:0c2ac400fae7c0467e0e00205c0d0020ea
:020000040000fa
:102ad00010b5040001000648fdf72aff6200121934
:102ae0005200044bd218e1b2034800f077f810bd51
:0c2af0003c1400200c0900200c140020f5
:020000040000fa
:102afc0010b5c200064b9b18064a11791971517911
:102b0c00597192799a7180b2fff7dcff10bdc04603
:082b1c008c0e00205c0e00206d
:020000040000fa
:102b240010b50021054800f021f90021044800f007
:102b340023f901210348fff753fe10bd091c0000cf
:082b4400e1280000800e0020d2
:020000040000fa
:102b4c0070b50020fff71aff064c2600002502e0a6
:102b5c003570fef787fffff759fa2378012bfad16e
:082b6c00f6e7c046850e0020cb
:020000040000fa
:102b740000280dd0012809d0022807d0032805d049
:102b84000023052801d01800704701380300fae734
:042b94000300f8e75b
:020000040000fa
:102b9800064b1b78064a10781b1a9bb218b20028fd
:102ba80001dbc0b270473c3318b2fae77f0e002051
:042bb8007e0e00206d
:020000040000fa
:102bbc00054b064a917819709268117859705178c2
:102bcc0099709278da707047280e00201c1400203f
:020000040000fa
:102bdc000b23002809d0002a07d00c234b43816813
:0e2bec00c91801230b7000234a6018007047bf
:020000040000fa
:102bfa00002310b5934206d103201840421e90418b
:0e2c0a009b08c01810bdc45ccc540133f2e727
:020000040000fa
:102c180070b505000e1e08d00024fff73fff28708e
:0c2c280001350134a4b2a642f7d170bd02
:020000040000fa
:102c340010b5054b01221a7000f048f8024a1378c7
:0c2c4400012bfcd010bdc046820e002009
:020000040000fa
:102c5000044a138802210b431380937a5bb2002b42
:082c6000fbdb7047001400408b
:020000040000fa
:102c6800044a138802218b431380937a5bb2002baa
:082c7800fbdb70470014004073
:020000040000fa
:102c8000034b10221a70912292045a607047c0467a
:042c900000040042fa
:020000040000fa
:102c9400034b18611a00937a5bb2002bfbdb70477d
:042ca40000140040d8
:020000040000fa
:102ca800034b98611a00937a5bb2002bfbdb7047e9
:042cb80000140040c4
:020000040000fa
:102cbc00034a1388802109020b4313807047c046d6
:042ccc006a0e00206c
:020000040000fa
:102cd00010b5034b187001211800fff7b1fa10bdb1
:042ce000810e002041
:020000040000fa
:102ce400481400208c0e00208c1200205614002062
:042cf4002814002080
:020000040000fa
:102cf80010b5034b01221a70142000f021f810bd02
:042d0800870e002012
:020000040000fa
:102d0c00352d0000fb2b0000e12d0000e12d000013
:042d1c00e12d0000a5
:020000040000fa
:102d200003b47146490840004900095a49008e44dd
:042d300003bc704729
:020000040000fa
:102d34008a18914201d10020704700230b700131a1
:022d4400f7e7af
:020000040000fa
:022d4600fee7a6
:020000040000fa
:102d4800024b1a88801818807047c0467c0e0020f5
:020000040000fa
:0c2d5800014b86225a6070470040004189
:020000040000fa
:0c2d6400014b1860996070473c0e002085
:020000040000fa
:0c2d7000014bd86019617047980d0020dd
:020000040000fa
:0c2d7c00014b586299627047980d0020ce
:020000040000fa
:0c2d88000a008003800108000300c04620
:020000040000fa
:0c2d9400014b01221a707047880e0020cd
:020000040000fa
:0c2da00010b5fdf7a5fefdf7b5fe10bd57
:020000040000fa
:0a2dac00823843425841c0b270471c
:020000040000fa
:022db600fee736
:020000040000fa
:082db800480e0020280e002047
:020000040000fa
:082dc0000d270000bd2b0000ef
:020000040000fa
:082dc80010b5fff795ff10bde7
:020000040000fa
:042dd00009001100e5
:020000040000fa
:042dd4008082c046f3
:020000040000fa
:042dd8008004110062
:020000040000fa
:042ddc008001c0466c
:020000040000fa
:042de0000020704718
:020000040000fa
:022de400704736
:020000040000fa
:0200000400807a
:0440000077c700d8a6
:020000040000fa
:0200000400807a
:044004005c00ffff5e
:00000001FF
